:040000000C946101FA
:100004000C9491020C94D4020C9400000C94000003
:100014000C9400000C9400000C9400000C9400005C
:100024000C9400000C9400000C9400000C9400004C
:100034000C9400000C9400000C9400000C9400003C
:100044000C9400000C9400000C9400000C9400002C
:100054001027E80364000A000100001000011000EA
:1000640001007072657373202A20746F20737461A9
:1000740072742C706C6561736500456E74657220D2
:10008400796F757220494400456E74657220796FEA
:1000940075722050430057656C636F6D652C20505A
:1000A400726F66200057656C636F6D652C20416824
:1000B4006D6564200057656C636F6D652C20416D20
:1000C40072200057656C636F6D652C204164656C0C
:1000D400200057656C636F6D652C204F6D61722035
:1000E40000446F6F72206973206F70656E00536FE8
:1000F4007272792077726F6E672070617373776F95
:1001040072642000536F7272792077726F6E672069
:1001140049442000456E7465722041646D696E2007
:10012400504300456E7465722053747564656E7433
:1001340020494400456E746572206E6577205043F3
:100144000050432069732073746F726564004944DE
:10015400206973206E6F7420666F756E6400436F40
:100164006E746163742041646D696E00456E7465DC
:100174007220494400796F7520646F6E6E6F74202D
:1001840068617665207065726D697373696F6E2C32
:10019400436F6E746163742061646D696E00636F94
:1001A4006E746163742061646D696E00456E74657C
:1001B40072206F6C642050430057726F6E6720701A
:1001C4006173732C2020436F6E74616374206164C7
:1001D4006D696E0052656E746572205043004E6501
:1001E400772050432073746F72656400322070610D
:1001F4007373776F726473206172656E6F74206DB0
:10020400617463682C436F6E746163742061646D00
:10021400696E00256420000080C01800600166003B
:100224000E0078017E000E0086018C000F00940100
:100234009A001000A301A9000E00B301B9000F0039
:10024400C101C7000F00D001D6000D00DF01E50099
:100254001600EC01F2001000020208010F00120265
:1002640018011100210227010D00320238010D008E
:100274003F02450110004C0252010E005C02620173
:1002840009006A0270012900730279010E009C02C0
:10029400A2010D00AA02B0011B00B702BD010D00AE
:1002A400D20238010A00DF02D8010E00E902E2019D
:1002B4002700F702F00102001E031C020000F8945C
:1002C400EE27ECBBF1E0FBBFEBBFE5BF8DE0A2E0A6
:1002D400BB27ED938A95E9F780E094E0A0E6ED93DF
:1002E4000197E9F7EEE1F2E085919591009761F0CD
:1002F400A591B59105901590BF01F00105900D925F
:100304000197E1F7FB01F0CFEFE5EDBFE4E0EEBFCD
:10031400C0E6D1E00C948E01E7E0E7BBE8EFE8BB70
:10032400A19AA9988C9A94988A98929A8B98939A5D
:100334007894E5B7E260E5BFE5B7E860E5BFE5B707
:10034400EE7FE5BFE5B7EB7FE5BFEBB7E064EBBF5E
:10035400EBB7E068EBBF8D9A9598A0E163D2A0E675
:10036400B1E051D22597FFD302D467D0EC832ED2CB
:10037400AC81AA3209F05EC0A9989498A8E7B1E0CC
:1003840042D2C4D1EA83FB83F6D3AA81BB81F7D3DB
:1003940009F04CC01BD2A6E8B1E035D2B7D1E8834E
:1003A400F983E9D3EA81FB81FA93EA93AA81BB81B9
:1003B400EBD379F5EA81FB81EF36A0E0FA0719F473
:1003C400A4E9B1E01BC0EE37A0E0FA0719F4A3EAF0
:1003D400B1E014C0E038A0E0FA0719F4A3EBB1E0EF
:1003E4000DC0E238A0E0FA0719F4A1ECB1E006C0B0
:1003F400E438A0E0FA0719F4A0EDB1E004D2BBD3CD
:10040400949AACEDB5E09AD4AFEDB1E0FCD19498F8
:100414000CC0ACEEB1E0F7D1AED3A99AA0EDB7E031
:100424008DD4A998A0EDB7E089D404C0A2E0B2E0CD
:10043400B0D395D1259696CFFFCFC098C19AC29AD2
:10044400E6B3E63F29F4B39BFECFE1E0089514C080
:10045400EE3E29F4B49BFECFE4E008950DC0EE3DDA
:1004640029F4B59BFECFE7E0089506C0EE3B21F4E6
:10047400B69BFECFEAE20895C09AC198C29AE6B349
:10048400E53F29F4B39BFECFE2E0089514C0ED3EAE
:1004940029F4B49BFECFE5E008950DC0ED3D29F4A9
:1004A400B59BFECFE8E0089506C0ED3B21F4B69B72
:1004B400FECFE0E00895C09AC19AC298E6B3E33F44
:1004C40029F4B39BFECFE3E0089514C0EB3E29F476
:1004D400B49BFECFE6E008950DC0EB3D29F4B59B37
:1004E400FECFE9E0089506C0EB3B21F4B69BFECFB6
:1004F400E3E20895A2CF1A930A938D01E199FECF06
:100504001FBB0EBBE09AEDB3C0C047D3E199FECF49
:100514003FBB2EBB0DBBE29AE19ABFD31EC142D3AF
:10052400229721D34DD352D1A2E1B2E051D3D801C5
:10053400C2D0E130A0E0FA0769F5A1E2B2E063D1EC
:10054400E5D0EE83FF8317D3AE81BF8118D3E9F4DE
:10055400A2E3B2E058D1DAD08F01A8EEB3E0EED333
:100564000AD3D801EAE0F0E0BCD39F0135D3D80127
:1005740038D3EE81FF81FA93EA93D801B0D0FBD24D
:10058400AFE3B2E006D322D104C0ACE4B2E03BD185
:10059400E6D005C0ACE5B2E036D1EDD2E0D07BD3F5
:1005A40028965AC0FFD22497DED2E1D209D3789498
:1005B4000DD1AAE6B2E00CD3EFE6F0E0E017F107C4
:1005C40029F4A3E7B2E01FD1CAD044C0D80152D065
:1005D400309729F4ACE9B2E00BD3C1D03BC0AAEA0E
:1005E400B2E006D393D0E887F987C5D21A930A9369
:1005F400AA85BB85C9D229F0A7EBB2E004D1AFD05C
:1006040029C0A2EDB2E0C5D2E1D080D09F01B3D21F
:10061400AFEDB2E0F8D07AD02F01ADD24216530636
:1006240089F4D901EAE0F0E05CD3EE83FF83D4D20D
:10063400D901D7D21A930A93D90151D0A9EEB2E0C5
:10064400E2D004C0A7EFB2E0DED089D0A4EFB1E0DD
:1006540075D3BCD020D32A96E991EFBFF991E991E3
:10066400B991A9919991899179916991F990199088
:10067400099018951A930A938D013DDFEF3F19F005
:10068400E1E0F0E002C0E0E0F0E0099119910895A2
:1006940084D2D901B1D2B6D229F4D9011196ACD2FF
:1006A400B7D209F004C0E1E0F0E0F7D256C0E0E0D0
:1006B400F0E0F3D252C0EAD29D010FE610E0D80177
:1006C400ADD2A0D229F4D8011196A8D2A1D209F0B2
:1006D40003C0E1E0F0E0A3C0E0E0F0E0A0C05DD240
:1006E4003A932A93D801EAE0F0E0E8D2DF010DDF83
:1006F400F9013196FA93EA93D801EAE0F0E0F6D2F0
:10070400DF0103DFE1E0F0E0C8D227C0BDD203E09F
:1007140010E020E030E040E050E0002E012AD9F063
:100724008CDE2E2F332752D0FA01AAE0B0E0BED2DD
:10073400E20FF31FAF01E7E1F2E0FA93EA93FA0163
:100744006F2F660F660B762FF4D284E0CCD12696F9
:1007540001501040E2CFFA019ED22696089564D249
:1007640063D208951A931A2FEBB3EF70AE2FE12FD3
:10077400E07FEA2BEBBB8DE08A95F1F7DA9A8DE006
:100784008A95F1F7DA988DE08A95F1F774C0AA9307
:10079400A881E8DFE881E295E883A881E3DF85E8C2
:1007A4008A95F1F7219608951A930A931A2F0A81CC
:1007B400E12FF0E0E25EFC4FE081E00FAE2FE7DFD7
:1007C400902E812E1981088123960895A2E034D2B7
:1007D400ACE0DDDFA1E030D2E0E08E2E9E2E089565
:1007E4001A931A2F1A3011F09B1438F0E0E0EA93B0
:1007F4008394A82DD9DF1A30F1F19394D89AA12FBC
:10080400C6DFD89838C042D29D01D9012F5F3F4F2F
:10081400EC911E2FE03019F0A12FE2DFF6CF3DD28C
:10082400249608951A931A2FEAB3E06FEABBD29A7A
:10083400D09AD19ADA98D898D998B12EE12FE05865
:10084400E0932003E12FE054E0932103A4E1B0E01E
:1008540075D2F6D1F5D1F4D1A0E284DF88EC90E032
:100864000197F1F7A8E293DFA4E091DFA5E88FDF19
:10087400A6E08DDFABDF19910895BA93AA9326976A
:1008840003D210E0AC85BD85E0E0F0E0ED93FC938D
:10089400EA89FB893196EA8BFB8B3197E4912E2F01
:1008A400E03009F40BC1E12FE03031F4253211F4CA
:1008B40011E001C0CCD101C1E130A1F4253211F421
:1008C400C6D1FAC012E040E000E02D3211F401E09C
:1008D400F4C02B3211F44BE2F0C0203211F440E2A8
:1008E400ECC002C0E23039F450E013E0203311F4DC
:1008F4000068E3C003C0E33009F0DFC0203310F028
:100904002A3308F007C0AAE05A9F502DE22FE05383
:100914005E0FD3C0E22FE33639F4A0D1E889F98918
:10092400A481AA93A1D1C8C0E33729F497D1A2D155
:1009340001D11E2F07C0E03749F490D19BD106D1D5
:100944001E2F086002600F7730E03AC0E43611F0E1
:10095400E93611F4046002C0E53731F4E4E5F0E06F
:10096400EE83FF8315E00CC0E83511F4086003C082
:10097400E83709F0A1C0EEE5F0E0EE83FF8314E070
:1009840002FF15C06BD1A889B9891496ED91FD9128
:10099400EA87FB87AB85AA2322F484D1EA87FB8705
:1009A4004DE2403011F01F5F01C00B7F09C056D1EA
:1009B400A889B9891496ED91FC911197EA87FB8770
:1009C40000FD10C0151770F407FF08C002FF04C033
:1009D4000B7F242F115001C020E301C020E237D146
:1009E4005150F0CF312F01FF16C0303099F003FF82
:1009F40006C0EE81FF812591EE83FF8305C0AE81A1
:100A0400BF812D91AE83BF8322D1503009F0515064
:100A14003150EBCF48C020E3EE81FF8186D1E887D7
:100A2400F987EE81FF813296EE83FF83E885F985AD
:100A3400AA85BB85AE17BF0750F02F5FA885B9857F
:100A4400EA85FB85EA1BFB0BEA87FB87EFCF2A339A
:100A540028F003FF02C0295F01C0295D04FD19C00D
:100A6400213320F4A885B985119709F409C05317D7
:100A740010F000FF01C011C020E207FF0AC020E30C
:100A8400006102FF06C00B7F4A93EED0503009F09C
:100A94005150DDD0503009F051503150A885B985FE
:100AA400129708F0B8CF00FF07C0503029F051501A
:100AB400E0E2EA93D9D0F9CF10E0EACEAC85BD8567
:100AC400ED91FD91E8D064960895E0D08D013C81CC
:100AD400A32F86DED801ED91FD913196FE93EE931E
:100AE400DCD025960895FF92F82E26971A930A9340
:100AF400DE0114960024AF0DB01D8D01E0E0EC83FF
:100B0400ED83EE83EF83DE0118960024AF0DB01D54
:100B1400ED91FD91FA93EA931A930A93E7E6F5E0CF
:100B2400FA93EA93DE011896A8DE198108812896C3
:100B3400FF900895BA93AA93A991B991EE27FF273C
:100B44006D91662311F03196FBCF0895BA93AA9361
:100B5400AA27BB27E991F9910590002011F011967D
:100B6400FBCFFD010895E0E0E883E9830895E0E028
:100B7400EA83EB830895A4EFB1E0E0D027CE7ADDD9
:100B8400E130A0E0FA07089583DDE130A0E0FA0740
:100B9400089539DEA8EEB3E0D1C078D08D012C8160
:100BA4003D8108950A921A92FA926A937A938A93EB
:100BB4009A93AA93BA93EA93FA93EFB7EA930895B0
:100BC40063D000E010E020E030E040E050E0089521
:100BD4001ADE9CDD8F01CFCFAAE0B0E067D0BF0161
:100BE4000895EAE0F0E085D0E60FF71FAF0108951D
:100BF4000ADEA4EFB1E0A2C07EDC6E2FD801EAE0E9
:100C0400F0E008955BD0A62FB0E0EA17FB07089543
:100C14006DD0A62FB0E0EA17FB0708956CDC6E2FA9
:100C2400D901EAE0F0E00895A99AA8EEB3E086D0ED
:100C3400A998A8EEB3E082C0AADDA3E0B0E07EC02C
:100C4400A0E390DD88EC90E00197F1F708952A93F2
:100C5400AD85BE85EF85F88909950895E889F989F8
:100C64003497E88BF98B0895AD85BE85EF85F889B7
:100C740009950895A889B9891496ED91FD91EE839B
:100C8400FF83AE81BF8108955A934A933A932A937E
:100C94001A930A9308955D814C813B812A811981BD
:100CA40008810895F195E195F0400895FA9FF02D9B
:100CB400EB9FF00DEA9FE02DF10D0895002411241F
:100CC40090E1AA0FBB1F001C111C0E1A1F0A18F476
:100CD4000E0E1F1E01C0A1609A9599F7FD01D00167
:100CE400089515D0EBDF0EF4DDDF0895E7DFFD0195
:100CF4000895E894B7FF04C0B195A195B0406894F5
:100D0400F7FDD0DFDBDFFD010EF4CCDF0895E894BE
:100D1400F7FF02C0C7DF6894B7FF06C0B195A1957D
:100D2400B04000F8039400FA08950590F491E02D82
:100D340008957A936A93FA93EA930895109639F092
:100D4400A89580ED97E00197F1F71197C9F70895F9
:00000001FF
